:020000040800F2
:1000000000C00020A91800084503000847030008A5
:10001000490300084B0300084D03000800000000DE
:100020000000000000000000000000004F03000876
:1000300051030008000000005303000855030008A6
:10004000F1180008F1180008F1180008F11800086C
:10005000F1180008F1180008F1180008F11800085C
:10006000F1180008F1180008F1180008F11800084C
:10007000F11800085D030008F1180008F1180008E5
:10008000F1180008F1180008F1180008F11800082C
:10009000F1180008F1180008F1180008F11800081C
:1000A000F1180008F1180008F1180008F11800080C
:1000B000F1180008F1180008F1180008F1180008FC
:1000C000F1180008F1180008F1180008F1180008EC
:1000D000F1180008F1180008F11800086D03000875
:1000E000F1180008F1180008F1180008F1180008CC
:1000F000F1180008F1180008F1180008F1180008BC
:10010000F1180008F1180008F1180008F1180008AB
:10011000F1180008F1180008F1180008F11800089B
:10012000F1180008F1180008F1180008F11800088B
:1001300000000000000000000000000000000000BF
:1001400000000000000000000000000000000000AF
:10015000000000000000000000000000000000009F
:10016000000000000000000000000000000000008F
:10017000000000000000000000000000000000007F
:10018000000000000000000000000000000000006F
:10019000000000000000000000000000000000005F
:1001A000000000000000000000000000000000004F
:1001B000000000000000000000000000000000003F
:1001C000000000000000000000000000000000002F
:1001D000000000000000000000000000000000001F
:0401E0005FF8E0F1F3
:1001E40010B5054C237833B9044B13B10448AFF36D
:1001F40000800123237010BD740000200000000063
:100204006C28000808B5034B1BB103490348AFF33E
:10021400008008BD00000000780000206C28000861
:1002240000B583B08DF807000A2301220DF1070100
:10023400034801F0D4F99DF8070003B05DF804FB0E
:10024400D800002070B50C461646002504E014F8CA
:10025400010BFFF7E5FF0135B542F8DB304670BD11
:1002640072B6FEE700B591B02822002106A801F07D
:1002740063FB0023019302930393049305930223E6
:10028400069301230A9310230B9306A800F00AF99E
:1002940068B90F2301930021029103910491059100
:1002A40001A800F03DFB20B911B05DF804FBFFF795
:1002B400D7FFFFF7D5FF000008B500F0A5F8FFF75A
:1002C400D1FF00F01BF801F00BF801F023F8084C03
:1002D400238801332380074B63221A804FF47A70FA
:1002E40000F0B6F82188044801F02EFBEFE700BFC8
:1002F40000000020020000208428000884B00F4B76
:100304009A6942F020029A619A6902F020020192ED
:10031400019A9A6942F008029A619A6902F0080205
:100324000292029A9A6942F004029A619B6903F06C
:1003340004030393039B04B0704700BF0010024002
:10034400FEE7FEE7FEE7FEE7FEE77047704770470B
:1003540008B500F06BF808BD08B5024800F0DCFDF4
:1003640008BD00BF9400002008B5024801F0FEF962
:1003740008BD00BFD800002082B00E4B9A6942F03D
:1003840001029A619A6902F001020092009ADA6904
:1003940042F08052DA61DB6903F080530193019BE0
:1003A400054A536823F0E06343F00073536002B0DE
:1003B400704700BF001002400000014010B5044621
:1003C4000E4B18784FF47A73B3FBF0F30C4A1068B1
:1003D400B0FBF3F000F06EFF68B90F2C01D90120D7
:1003E4000AE0002221464FF0FF3000F01DFF054BCC
:1003F4001C60002000E0012010BD00BF04000020AC
:100404000C0000200800002008B5074A136843F0D8
:1004140010031360032000F0F5FE0020FFF7CEFF69
:10042400FFF7AAFF002008BD00200240034A11681C
:10043400034B1B780B441360704700BF90000020EF
:1004440004000020014B1868704700BF9000002092
:1004540038B50446FFF7F6FF0546B4F1FF3F02D076
:10046400044B1B781C44FFF7EDFF401BA042FAD35A
:1004740038BD00BF0400002082B0084B1B68084A46
:10048400A2FB03235B0A00FB03F3019300BF019B60
:100494005A1E0192002BF9D102B070470C000020C3
:1004A400D34D6210002800F0F18170B582B004468B
:1004B400036813F0010F2CD0994B5B6803F00C0315
:1004C400042B1DD0964B5B6803F00C03082B12D051
:1004D4006368B3F5803F41D0002B55D103F18043CD
:1004E40003F504331A6822F480321A601A6822F47D
:1004F40080221A6037E08A4B5B6813F4803FE7D0B0
:10050400874B1B6813F4003F03D06368002B00F093
:10051400BF81236813F0020F75D0814B5B6813F021
:100524000C0F5FD07E4B5B6803F00C03082B54D098
:100534002369002B00F08A807A4B01221A60FFF7AE
:1005440081FF0546764B1B6813F0020F75D1FFF748
:1005540079FF401B0228F5D903209EE1704A1368F5
:1005640043F480331360636843B3FFF76BFF0546BE
:100574006B4B1B6813F4003FCBD1FFF763FF401BA9
:100584006428F5D9032088E1B3F5A02F09D0644B82
:100594001A6822F480321A601A6822F480221A60DF
:1005A400E1E703F18043A3F53C331A6842F4802267
:1005B4001A601A6842F480321A60D4E7FFF742FFE7
:1005C4000546574B1B6813F4003FA2D0FFF73AFFD0
:1005D400401B6428F5D903205FE1514B5B6813F499
:1005E400803FA5D14E4B1B6813F0020F03D0236943
:1005F400012B40F04F814A4A136823F0F8036169E4
:1006040043EAC1031360236813F0080F33D0A369CE
:10061400002B5CD0434B0122C3F88024FFF712FF68
:1006240005463F4B5B6A13F0020F21D1FFF70AFF27
:10063400401B0228F5D903202FE1394A136823F01F
:10064400F803616943EAC1031360DCE7354B002218
:100654001A60FFF7F7FE0546314B1B6813F0020FD3
:10066400D1D0FFF7EFFE401B0228F5D9032014E197
:100674000120FFF701FF236813F0040F00F09680B8
:10068400274BDB6913F0805F34D1254BDA6942F0E4
:100694008052DA61DB6903F080530193019B0125E9
:1006A400214B1B6813F4807F26D0E368012B3DD0D7
:1006B400002B53D103F1804303F504331A6A22F06B
:1006C40001021A621A6A22F004021A6233E0154B1C
:1006D4000022C3F88024FFF7B5FE0546104B5B6A81
:1006E40013F0020FC7D0FFF7ADFE401B0228F5D967
:1006F4000320D2E00025D3E70B4A136843F4807348
:100704001360FFF79FFE0646074B1B6813F4807FB8
:10071400CBD1FFF797FE801B6428F5D90320BCE0FA
:100724000010024000004242007000405F4A136A19
:1007340043F001031362E36833B3FFF783FE064615
:100744005A4B1B6A13F0020F2FD1FFF77BFE801B5D
:1007540041F288339842F3D903209EE0052B09D057
:10076400524B1A6A22F001021A621A6A22F0040237
:100774001A62E0E74D4B1A6A42F004021A621A6ADE
:1007840042F001021A62D6E7FFF75CFE0646474BC9
:100794001B6A13F0020F08D0FFF754FE801B41F2CE
:1007A40088339842F3D9032077E0E5B9E369002B55
:1007B40072D03E4A526802F00C02082A56D0022B2C
:1007C40017D03B4B00221A66FFF73CFE0446374B1A
:1007D4001B6813F0007F47D0FFF734FE001B02288C
:1007E400F5D9032059E0314AD36923F08053D3610A
:1007F400DCE72F4B00221A66FFF724FE05462B4B3D
:100804001B6813F0007F06D0FFF71CFE401B022874
:10081400F5D9032041E0236AB3F5803F1AD0234978
:100824004B6823F47413226A606A024313434B60D7
:100834001F4B01221A66FFF705FE04461B4B1B687B
:1008440013F0007F0ED1FFF7FDFD001B0228F5D940
:10085400032022E0154A536823F40033A1680B43B4
:100864005360DCE7002018E0002016E0012B16D0CE
:100874000E4B5B6803F48031226A914211D103F478
:100884007013626A93420ED1002006E00120704783
:10089400012002E0012000E0002002B070BD012030
:1008A400FBE70120F9E70120F7E700BF0010024051
:1008B4000000424286B0164B0FCB0DF1180C0CE928
:1008C4000F0040F20123ADF80430124B5B6803F0D3
:1008D4000C02082A02D0104806B07047C3F38342C2
:1008E400624412F8100C13F4803F0CD0094B5B687F
:1008F400C3F34043634413F8143C074A02FB00F07B
:10090400B0FBF3F0E8E7054B03FB00F0E4E700BFBE
:10091400982800080010024000127A0000093D00E7
:10092400002800F0A08070B50D460446524B1B68A9
:1009340003F007038B420BD24F4A136823F00703DB
:100944000B431360136803F007038B4240F08D8060
:10095400236813F0020F17D013F0040F04D0474A92
:10096400536843F4E0635360236813F0080F04D022
:10097400424A536843F460535360404A536823F037
:10098400F003A1680B435360236813F0010F31D0C7
:100994006368012B20D0022B25D0384A126812F04C
:1009A400020F64D035494A6822F0030213434B60B6
:1009B400FFF748FD0646314B5B6803F00C036268A1
:1009C400B3EB820F16D0FFF73DFD801B41F2883355
:1009D4009842F0D9032045E0284A126812F4003FF7
:1009E400E0D101203EE0254A126812F0007FD9D1FF
:1009F400012037E0204B1B6803F00703AB420AD900
:100A04001D4A136823F007032B431360136803F094
:100A14000703AB422DD1236813F0040F06D0174A05
:100A2400536823F4E063E1680B435360236813F0D5
:100A3400080F07D0114A536823F46053216943EA2D
:100A4400C1035360FFF736FF0C4B5B68C3F303131A
:100A54000B4AD35CD8400B4B18600B4B1868FFF75C
:100A6400ADFC002070BD012070470120FAE7012091
:100A7400F8E70120F6E700BF002002400010024022
:100A8400AC2800080C00002008000020014B186866
:100A9400704700BF0C00002008B5FFF7F7FF044BB8
:100AA4005B68C3F30223034AD35CD84008BD00BF8C
:100AB40000100240BC28000808B5FFF7E7FF044B0C
:100AC4005B68C3F3C223034AD35CD84008BD00BFAC
:100AD40000100240BC28000870B582B00024A4466F
:100AE400B0E0874DAA4210D007D9864DAA420CD057
:100AF40005F58035AA4208D013E0A5F58015AA4271
:100B040003D005F57025AA4207D18A68002A62D06D
:100B1400012A5BD04361082403E0A5F58015AA42AD
:100B2400F3D0BEF1FF0F58D80646BEF1FF0F56D8DA
:100B34004FEA8C0233680F25954023EA050304FA33
:100B440002F2134333604B6813F0805F78D06E4B2E
:100B54009A6942F001029A619B6903F001030193CF
:100B6400019B4FEA9C02951C684B53F825600CF0DE
:100B740003039D000F23AB4026EA0306644B98420F
:100B840033D003F58063984200F0988003F58063C6
:100B9400984200F0958003F58063984200F09280BB
:100BA40003F58063984200F08F8003F580639842D8
:100BB40019D006231AE0CC68B3E7CC680434B0E754
:100BC400CC680834ADE7CC680C34AAE70361082488
:100BD400A7E70024A5E70424A3E7061DA5E7ACF1D5
:100BE40008029200A6E7052300E00023AB4033434C
:100BF4000232464D45F822304B6813F4803F65D0ED
:100C0400444A136843EA0E0313604B6813F4003F2D
:100C140062D0404A536843EA0E0353604B6813F4AE
:100C2400801F5FD03B4A936843EA0E0393604B688E
:100C340013F4001F5CD0374AD36843EA0E03D36031
:100C44000CF1010C0A6832FA0CF357D0012303FAB1
:100C54000CF302EA030E33EA0202F1D14A68122AC3
:100C64003FF63FAF122A3FF65CAF01A555F822F0DC
:100C74000F0B0008BB0B0008C50B0008D70B0008BE
:100C8400270B0008270B0008270B0008270B000878
:100C9400270B0008270B0008270B0008270B000868
:100CA400270B0008270B0008270B0008270B000858
:100CB400270B0008BF0B0008CB0B0008012395E7A6
:100CC400022393E7032391E704238FE7114A136870
:100CD40023EA0E03136098E70E4A536823EA0E03CF
:100CE40053609BE70B4A936823EA0E0393609EE7E5
:100CF400084AD36823EA0E03D360A1E702B070BDAB
:100D040000002210000031100010024000000140D9
:100D1400000801400004014000283AD010B4024603
:100D240000681D4B984229D81C4B03441C49A1FB65
:100D340003131B099B0013641A4BD363022382F829
:100D44002130016821F47F5121F030015368946807
:100D54002343D46823431469234354692343946984
:100D64002343D46923430B4303600020906301238E
:100D740082F8213082F8200010BC70470A4B0344EB
:100D84000749A1FB03131B099B001364074BD3639F
:100D9400D4E70120704700BF07040240F8FFFDBFFD
:100DA400CDCCCCCC00000240F8FBFDBF00040240D7
:100DB40008B590F82130022B03D00423836301206B
:100DC40008BD0268136823F00E03136002681368F9
:100DD40023F00103136003684B4A93424ED9783AD7
:100DE400934224D01432934230D0143293422FD001
:100DF400143293422FD0143293422FD014329342A0
:100E04002FD0143293422FD002F5627293422ED027
:100E1400143293422DD0143293422CD01432934284
:100E240002D04FF4803203E04FF4805200E00122FC
:100E3400364B5A60012380F82130002380F820309B
:100E4400436B002B5ED098470020B9E71022EFE7F0
:100E54004FF48072ECE74FF48052E9E74FF48032AC
:100E6400E6E74FF48012E3E74FF08072E0E70122F7
:100E7400DEE71022DCE74FF48072D9E7244A93427C
:100E840024D01432934225D01432934224D0143205
:100E9400934224D01432934224D01432934224D067
:100EA4001432934224D002F56272934223D0143256
:100EB400934222D01432934221D01432934202D06E
:100EC4004FF4803203E04FF4805200E00122114BD2
:100ED4005A60AFE71022FAE74FF48072F7E74FF455
:100EE4008052F4E74FF48032F1E74FF48012EEE7DA
:100EF4004FF08072EBE70122E9E71022E7E74FF4B5
:100F04008072E4E700205BE78000024000040240B6
:100F1400080002400000024038B5C36B1A68046838
:100F24002568016C04238B40134200F09B8015F06C
:100F3400040F00F09780236813F0200F03D1236877
:100F440023F00403236003689A4A934246D9783A0B
:100F5400934224D01432934228D01432934227D09F
:100F64001432934227D01432934227D0143293423E
:100F740027D01432934227D002F56272934226D0CE
:100F84001432934225D01432934224D01432934223
:100F940002D04FF4802203E04FF4804200E00422A8
:100FA400854B5A60C36A03B1984738BD4022F7E7BE
:100FB4004FF48062F4E74FF48042F1E74FF480226B
:100FC400EEE74FF48002EBE74FF08062E8E704229B
:100FD400E6E74022E4E74FF48062E1E7774A934290
:100FE40024D01432934225D01432934224D01432A4
:100FF400934224D01432934224D01432934224D006
:101004001432934224D002F56272934223D01432F4
:10101400934222D01432934221D01432934202D00C
:101024004FF4802203E04FF4804200E00422644B3A
:101034005A60B7E74022FAE74FF48062F7E74FF4CB
:101044008042F4E74FF48022F1E74FF48002EEE7A8
:101054004FF08062EBE70422E9E74022E7E74FF430
:101064008062E4E702238B40134200F0AB8015F06A
:10107400020F00F0A780236813F0200F06D1236825
:1010840023F00A032360012380F821300368494ACE
:1010940093424BD9783A934224D0143293422DD0C0
:1010A400143293422CD0143293422CD014329342F3
:1010B4002CD0143293422CD0143293422CD002F50B
:1010C400627293422BD0143293422AD01432934248
:1010D40029D01432934202D04FF4003203E04FF48B
:1010E400005200E00222344B5A60002380F8203082
:1010F400836A002B3FF459AF984756E72022F2E762
:101104004FF40072EFE74FF40052ECE74FF4003273
:10111400E9E74FF40012E6E74FF00072E3E702223A
:10112400E1E72022DFE74FF40072DCE7234A934231
:1011340024D01432934225D01432934224D0143252
:10114400934224D01432934224D01432934224D0B4
:101154001432934224D002F56272934223D01432A3
:10116400934222D01432934221D01432934202D0BB
:101174004FF4003203E04FF4005200E00222104B1F
:101184005A60B2E72022FAE74FF40072F7E74FF40F
:101194000052F4E74FF40032F1E74FF40012EEE7A7
:1011A4004FF00072EBE70222E9E72022E7E74FF471
:1011B4000072E4E78000024000040240080002409C
:1011C40000000240082303FA01F111423FF4EDAE9E
:1011D40015F0080F3FF4E9AE236823F00E032360F3
:1011E400026CC16B012303FA02F24A60836380F844
:1011F4002130002380F82030036B002B3FF4D5AE60
:101204009847D2E6074AD36823F4E0631B041B0C17
:10121400000200F4E060034343F0BF6343F400338F
:10122400D360704700ED00E000B5194BDB68C3F3F1
:101234000223C3F1070CBCF1040F28BF4FF0040CC8
:1012440003F1040EBEF1060F18D9033B4FF0FF3E25
:101254000EFA0CFC21EA0C0199400EFA03F322EA7F
:101264000303194300280BDB0901C9B200F16040F4
:1012740000F5614080F800135DF804FB0023E5E706
:1012840000F00F000901C9B2024B1954F4E700BF82
:1012940000ED00E014ED00E0002807DB00F01F0281
:1012A400400901239340024A42F82030704700BFAE
:1012B40000E100E00138B0F1807F0BD24FF0E02371
:1012C4005861054AF02182F8231000209861072212
:1012D4001A6170470120704700ED00E0704700007C
:1012E40000B583B00A4B5A6942F001025A615B6946
:1012F40003F001030193019B002211460D20FFF727
:1013040093FF0D20FFF7C8FF03B05DF804FB00BF97
:101314000010024008B50A480A4B03604FF4E13359
:10132400436000238360C36003610C2242618361D4
:10133400C36100F025F900B908BDFEF791FFFBE792
:10134400D80000200048004070B586B00023029306
:101354000393049305930268264B9A4201D006B086
:1013640070BD044603F5E433DA6942F48022DA619D
:10137400DA6902F480220092009A9A6942F0080223
:101384009A619B6903F008030193019B4FF4806306
:1013940002930223039303230593174E02A93046B5
:1013A400FFF79AFB4FF4006302930025039504951D
:1013B40002A93046FFF790FB1048114B03604560CB
:1013C40085608023C360056145618561C561FFF760
:1013D400A3FC58B9094B63635C62002211462720C1
:1013E400FFF722FF2720FFF757FFB8E7FEF738FF84
:1013F400F0E700BF00480040000C014094000020CA
:10140400300002400268D36823F49073D36002680A
:10141400536923F001035361202380F83A30704765
:1014240090F83930DBB2212B01D002207047836859
:10143400B3F5805F17D0036A5A1C02621A780368F6
:101444005A60C38C9BB2013B9BB2C3844BB9026804
:10145400D36823F08003D3600268D36843F0400369
:10146400D360002070470369002BE4D1036A1B8812
:101474000268C3F308035360036A02330362E0E7BC
:1014840010B504460268136923F44053C1680B4342
:10149400136183680269134342691A430168CB6884
:1014A40023F4B05323F00C031343CB600268536955
:1014B40023F4407381690B4353610268134B9A42CE
:1014C40020D0FFF7E9FA024602EB820202EB820225
:1014D40063689B00B2FBF3F20D48A0FB023149099B
:1014E400642303FB11231B013233A0FB03235B0999
:1014F40003F0F00202EB011203F00F03216813441E
:101504008B6010BDFFF7D8FA0246DDE700380140D2
:101514001F85EB512DE9F84305460F4616469946BB
:10152400DDF820802C68246837EA04030CBF4FF0F0
:10153400010C4FF0000CB4451FD1B8F1FF3FF1D0BE
:10154400B8F1000F05D0FEF77DFFA0EB0900404580
:10155400E8D92A68D36823F4D073D3602A6853691E
:1015640023F001035361202385F8393085F83A309C
:10157400002385F83830032000E00020BDE8F8831C
:1015840058B310B5044690F839300BB3242384F8CB
:1015940039302268D36823F40053D3602046FFF720
:1015A4006FFF2268136923F490431361226853691F
:1015B40023F02A0353612268D36843F40053D360B1
:1015C4000020E063202384F8393084F83A3010BDD9
:1015D40080F83830FFF7B8FED8E7012070472DE9CE
:1015E400F04182B01E4690F83930DBB2202B54D142
:1015F40004460D469046002953D0002A53D090F853
:101604003830012B51D0012380F838300023C363D4
:10161400212380F83930FEF715FF0746A4F824800B
:10162400A4F82680A368B3F5805F05D04FF00008C6
:10163400002384F8383012E0236913B14FF0000816
:10164400F6E7A8460025F3E738F8023B2268C3F31F
:1016540008035360E28C92B2013A92B2E284E38CC2
:101664009BB273B100963B46002280212046FFF7CF
:1016740051FFE0B9002DE7D015F8012B23685A601B
:10168400E8E700963B46002240212046FFF742FF50
:1016940078B9202384F8393000E0022002B0BDE894
:1016A400F0810120FAE70120F8E70220F6E70320A1
:1016B400F4E70320F2E7704708B50168CA6822F02E
:1016C4004002CA60202280F83920FFF7F4FF00208E
:1016D40008BD704708B590F83A30DBB2222B41D1EF
:1016E4008368B3F5805F14D0826AB3F5805F02D05B
:1016F400E3B90369D3B903685B681370836A013380
:101704008362C38D9BB2013B9BB2C385A3B100200E
:1017140008BD0269002AE7D1826A03685B68C3F3E3
:1017240008031380836A02338362EAE703685B6811
:1017340003F07F031370E1E70268D36823F020030A
:10174400D3600268D36823F48073D360026853695A
:1017540023F001035361202380F83A30FFF7B9FFE7
:101764000020D5E70220D3E77047000010B50446F7
:1017740002681368D168526913F00F0005D113F0A1
:10178400200F02D011F0200F13D128B112F0010262
:1017940013D111F4907F10D113F0800F02D011F007
:1017A400800F6CD113F0400F02D011F0400F6AD1BA
:1017B40010BD2046FFF78EFFFAE713F0010F06D0A5
:1017C40011F4807F03D0E06B40F00100E06313F07C
:1017D400040F04D01AB1E06B40F00200E06313F090
:1017E400020F04D01AB1E06B40F00400E06313F080
:1017F400080F07D011F0200F00D11AB1E26B42F0AC
:101804000802E263E26B002AD2D013F0200F02D068
:1018140011F0200F21D123685B6903F04003E26BD0
:1018240012F0080F00D123B32046FFF7EBFD236825
:101834005A6912F0400F18D05A6922F040025A61D6
:10184400636B73B1124A5A63606BFFF7B1FA0028F5
:10185400AED0606B436B9847AAE72046FFF73AFF88
:10186400D9E72046FFF780FFA2E72046FFF77CFF79
:101874009EE72046FFF778FF0023E36398E72046BE
:10188400FFF7CEFD94E72046FFF716FF90E700BF71
:101894009918000808B5406A0023C385C384FFF77C
:1018A40063FF08BD002103E00B4B5B584350043138
:1018B4000A480B4B42189A42F6D30A4A02E0002324
:1018C40042F8043B084B9A42F9D3FFF707FD00F0B6
:1018D4000FF8FEF7F1FC70476429000800000020AF
:1018E40074000020740000202C010020FEE700009A
:1018F40070B500260C4D0D4C641BA410A64209D1F2
:1019040000F0B2FF00260A4D0A4C641BA410A64244
:1019140005D170BD55F8043B98470136EEE755F8FC
:10192400043B98470136F2E75C2900085C2900086B
:101934005C2900086029000803460244934200D150
:10194400704703F8011BF9E70FB40A4B13B51C6881
:1019540024B1A36913B9204600F066F805AB20460C
:10196400049AA168019300F081F902B0BDE8104027
:1019740004B0704710000020002310B50446C0E9ED
:101984000033C0E90433836081814366C28183618B
:10199400194608225C30FFF7CFFF054B24626362CF
:1019A400044BA362044BE362044B236310BD00BFEA
:1019B4001D2200083F220008772200089B2200080D
:1019C400014900F0AFB800BF6D250008682270B56A
:1019D4004D1E55430E4605F1740100F0C5F804464A
:1019E40040B10021C0E900160C30A06005F1680286
:1019F400FFF7A2FF204670BD014800F0B3B800BF56
:101A040019010020014800F0AEB800BF1901002000
:101A1400014800F0A7B800BF1A010020014800F0F7
:101A2400A2B800BF1A01002010B50446FFF7F0FF6A
:101A3400A3691BB1BDE81040FFF7F0BFC4E912333E
:101A44002365134B134A1B68A262A34208BF0123F8
:101A5400204608BFA36100F01FF86060204600F034
:101A64001BF8A060204600F017F800220421E06073
:101A74006068FFF781FF01220921A068FFF77CFF5E
:101A840002221221E068FFF777FF0123A361D1E767
:101A9400C4280008C5190008F8B50746FFF7ACFFCD
:101AA4001E4B1E68B36913B93046FFF7BDFF4836B5
:101AB400D6E90134013B03D533680BB33668F7E745
:101AC400B4F90C50D5B9164B04F15800E3606566BF
:101AD40000F047F8FFF796FF08222946C4E90155AC
:101AE400C4E904552560A56104F15C00FFF724FFF7
:101AF400C4E90D55C4E912552046F8BD6834D9E748
:101B040004213846FFF762FF044630600028D5D12F
:101B1400FFF778FF0C233B60EEE700BFC428000802
:101B24000100FFFF2DE9F84306468846002700F12F
:101B34004804D4E90195B9F1010905D52468002CBC
:101B4400F7D13846BDE8F883AB89012B07D9B5F93D
:101B54000E30013303D029463046C0470743683569
:101B6400E9E7704770477047F8B5CD1C25F00305C9
:101B740008350C2D38BF0C25002D064601DBA94283
:101B840003D90C2333600020F8BD00F0AFFD2149D8
:101B94000A6814469CB9204F3B6823B92146304655
:101BA40000F02AFB38602946304600F025FB431C30
:101BB40023D10C233046336000F09EFDE3E7236815
:101BC4005B1B17D40B2B03D923601C44256004E052
:101BD4006368A2420CBF0B605360304600F08CFD7A
:101BE40004F10B00231D20F00700C21ACCD01B1AED
:101BF400A350C9E722466468CCE7C41C24F003045C
:101C0400A042E3D0211A304600F0F6FA0130DDD1CB
:101C1400CFE700BF1C01002020010020936810B40E
:101C2400013B002B936007DA9469A34201DB0A2984
:101C340002D110BC00F034BB1368581C106019703A
:101C4400084610BC7047F8B506460F461446D5182A
:101C5400AC4201D1002007E03A46304614F8011B9B
:101C6400FFF7DCFF431CF3D1F8BD00002DE9F04F72
:101C74000D461446984606469DB018B183690BB9C3
:101C8400FFF7D2FE894B9D421BD175686B6ED90755
:101C940005D4AB899A0502D4A86DFFF763FFAB891D
:101CA4001B0701D52B69EBB92946304600F05CFBD4
:101CB400C0B16B6EDC070ED54FF0FF301DB0BDE830
:101CC400F08F7B4B9D4201D1B568DFE7794B9D4294
:101CD40008BFF568DAE7AB899805EDD4A86DFFF77E
:101CE40042FFE9E70023099320238DF829303023AC
:101CF4004FF00109CDF80C80DFF8BC818DF82A3053
:101D040023469A4613F8012B0AB1252AF9D1BAEBD6
:101D1400040B0BD05B46224629463046FFF793FF5F
:101D2400013000F0AA80099A5A4409929AF80030C6
:101D3400002B00F0A28000234FF0FF32CDE90523F1
:101D44000AF1010A049307938DF853301A93544609
:101D5400052214F8011B584800F0BAFC049AD8B9BB
:101D6400D10644BF20238DF85330130744BF2B23DF
:101D74008DF853309AF800302A2B15D054460020A1
:101D84004FF00A0C079A214611F8013B303B092B0E
:101D94004ED9B0B1079214E0A0EB080309FA03F39B
:101DA4001343A2460493D2E7039B191D1B680391B6
:101DB400002BBBBF5B4242F0020207930793B8BFFC
:101DC400049223782E2B0CD163782A2B35D1039BD4
:101DD40002341A1D1B680392002BB8BF4FF0FF3367
:101DE4000593DFF8D8A003225046217800F070FC58
:101DF40040B14023A0EB0A0003FA00F0049B013435
:101E04000343049314F8011B06222D488DF828106F
:101E140000F05EFC00283FD02A4B1BBB039B07331A
:101E240023F0070308330393099B3B44099367E7B3
:101E34000C4601200CFB0232A5E700234FF00A0CEC
:101E4400194601340593204610F8012B303A092A2B
:101E540003D9002BC5D00591C3E7044601230CFB2D
:101E64000121F0E703AB00932A463046164B04A940
:101E7400AFF300800746781CD6D16B6ED90705D422
:101E8400AB899A0502D4A86DFFF76DFEAB895B069A
:101E94003FF512AF099811E703AB00932A46304689
:101EA400094B04A900F082F8E4E700BFE828000821
:101EB40008290008C8280008282900082E29000835
:101EC40032290008000000004B1C00082DE9F047EF
:101ED400164699468A680B6907469342B8BF13466B
:101EE400336091F843200C46DDF820800AB10133B9
:101EF40033602368990642BF336802333360256830
:101F040015F0060506D104F1190AE36832689B1A34
:101F1400AB4228DC94F84320131E226818BF012327
:101F240092062DD44946384604F14302C047013095
:101F340020D02368E56803F00603042B18BF0025AE
:101F440032684FF00006A36808BFAD1A226908BFC3
:101F540025EAE5759342C4BF9B1AED181A34B542BD
:101F64001AD1002008E00123524649463846C047AA
:101F7400013003D14FF0FF30BDE8F0870135C4E7ED
:101F84003020E11881F843005A1C94F8451022448B
:101F9400023382F84310C5E70123224649463846F6
:101FA400C0470130E6D00136D9E700002DE9FF47EC
:101FB4000F7E9146782F80460C469A460C9D01F17F
:101FC400430207D8622F0AD8002F00F0D980582F77
:101FD40000F0A48004F1420584F842703AE0A7F1CD
:101FE4006303152BF6D801A151F823F0492000080A
:101FF4005D200008D91F0008D91F0008D91F000858
:10200400D91F00085D200008D91F0008D91F000847
:10201400D91F0008D91F00086B2100088D20000873
:102024004D210008D91F0008D91F00088D21000880
:10203400D91F00088D200008D91F0008D91F0008E7
:10204400552100082B681A1D1B682A6004F14205FB
:1020540084F842300123A4E020682968060601F1CF
:1020640004030AD50E682B60002E03DA2D23764272
:1020740084F843300A235E4819E00E6810F0400FDC
:102084002B6018BF36B2EFE72B682068191D296052
:10209400010601D51E6802E04606FBD51E886F2F97
:1020A4000CBF08230A235248002184F843106568B2
:1020B400002DA8BF2168A560A4BF21F00401216000
:1020C4000EB9002D4DD01546B6FBF3F103FB116795
:1020D400C75D05F8017D3746BB420E46F4D9082B8F
:1020E4000BD12368DE0708D5236961689942DEBFF6
:1020F400302305F8013C05F1FF35521B22614B46A4
:1021040021464046CDF800A003AAFFF7DFFE0130C8
:102114004CD14FF0FF3004B0BDE8F087344881F86B
:1021240045702968236851F8046B29601D0614D58D
:10213400DF0744BF43F0200323601EB9236823F064
:10214400200323601023AFE7236843F020032360B8
:102154007823284884F84530E3E7590648BFB6B2E7
:10216400E6E71546BBE72B682668181D61692860F9
:1021740035061B6801D5196002E07006FBD519808D
:10218400002315462361BAE72B6800211A1D2A6033
:102194001D686268284600F09BFA08B1401B606025
:1021A40063682361002384F84330A8E72A4649463C
:1021B40040462369D0470130ABD023689B0713D432
:1021C400E068039B9842B8BF1846A4E7012332464F
:1021D40049464046D04701309BD00135E368039916
:1021E4005B1AAB42F2DCEBE7002504F11906F5E7D4
:1021F400392900084A29000838B50023054D04464A
:1022040008462B6000F022FB431C02D12B6803B16B
:10221400236038BD2401002010B50C46B1F90E101E
:1022240000F0B8FA0028ABBF636DA3891B1823F430
:102234008053ACBF6365A38110BD2DE9F0411F46F7
:102244008B890546DB050C46164605D5022300227C
:10225400B1F90E1000F0C4F9A389324623F4805377
:10226400A38128463B46B4F90E10BDE8F04100F0C6
:1022740069B810B50C46B1F90E1000F0B1F9431C61
:10228400A38915BF606523F4805343F48053A3816D
:1022940018BFA38110BDB1F90E1000F0D3B800002F
:1022A400F8B50E461446054618B183690BB9FFF715
:1022B400BBFB214B9C422BD16C68A369A360A3890F
:1022C4001A072FD523696BB323692068F6B2C01AA5
:1022D40063693746834204DC2146284600F044F90A
:1022E40030BBA3680130013BA36023685A1C226001
:1022F4001E706369834204D0A389DB0706D50A2EC6
:1023040004D12146284600F02FF988B93846F8BD93
:102314000A4B9C4201D1AC68CFE7094B9C4208BFF1
:10232400EC68CAE72146284600F01EF80028CBD006
:102334004FF0FF37EAE700BFE82800080829000843
:10234400C828000838B50446084611460022054D41
:102354002A601A46FDF776FF431C02D12B6803B1AD
:10236400236038BD24010020324B70B51D68064639
:102374000C4625B1AB6913B92846FFF755FB2E4B24
:102384009C420FD16C68A389B4F90C2019072CD492
:10239400DD0611D40923336042F040034FF0FF30CF
:1023A400A3813EE0254B9C4201D1AC68EBE7244B72
:1023B4009C4208BFEC68E6E7580712D5616B41B14F
:1023C40004F14403994202D0304600F09BF9002303
:1023D4006363A38923F02403A38100236360236937
:1023E4002360A38943F00803A38123694BB9A3891C
:1023F40003F42073B3F5007F03D02146304600F088
:1024040027F9A089B4F90C2010F001030AD00023A5
:10241400A36063695B42A361236943B910F0800040
:10242400BAD170BD810758BF6369A360F4E7002087
:10243400F7E700BF10000020E8280008082900087A
:10244400C828000838B50023054D044608462B600B
:1024540000F0D4F9431C02D12B6803B1236038BDCA
:10246400240100208A89F8B5054610070C4657D484
:102474004B68002B04DC0B6C002B01DC0020F8BD46
:10248400E66A002EFAD0002312F480522F682B60E3
:1024940032D0606DA3895A0705D56368C01A636B8F
:1024A4000BB1236CC01A00230246E66A2846216A4F
:1024B400B047431CA38906D129681D292CD8294A71
:1024C400CA40D60728D5002262602269D904226056
:1024D40004D5421C01D12B6803B96065616B2F6080
:1024E4000029CBD004F14403994202D0284600F0DD
:1024F40009F900206063C2E7216A01232846B04736
:10250400411CC7D12B68002BC4D01D2B01D0162B26
:1025140001D12F60B2E7A38943F04003A381AEE762
:102524000F69002FAAD0930718BF00230E6808BFB5
:102534004B69F61B0F608B60002E9FDD33463A46D5
:102544002846216AD4F828C0E047002806DCA3897D
:102554004FF0FF3043F04003A38190E70744361A5D
:10256400EAE700BF0100402038B50B6905460C4678
:1025740013B90025284638BD18B183690BB9FFF794
:1025840053FA144B9C421BD16C68B4F90C30002BE9
:10259400EFD0626ED00704D4990502D4A06DFFF782
:1025A400E1FA28462146FFF75DFF636E0546DA0728
:1025B400E0D4A3899B05DDD4A06DFFF7D4FAD9E755
:1025C400054B9C4201D1AC68DFE7044B9C4208BF39
:1025D400EC68DAE7E828000808290008C828000899
:1025E40038B50446084611460022054D2A601A46AD
:1025F40000F01CF9431C02D12B6803B1236038BDE1
:102604002401002070B50E46B1F90E1014460029BD
:102614001D4696B008DA0022B6F90C302A601A0674
:1026240010D44FF480630EE06A4600F0C5F8002829
:10263400F1DB019A02F47042A2F500535A425A4166
:102644002A60EEE740230020236016B070BD00002E
:102654008B8973B59D0706460C4607D504F14703DD
:10266400236023610123636102B070BD6A4601AB3C
:10267400FFF7C8FF009905463046FFF775FA48B9D9
:10268400B4F90C309A05EFD423F0030343F00203AA
:10269400A381E3E70D4BB362A389206043F0800379
:1026A400A381009B20616361019B5BB13046B4F957
:1026B4000E1000F093F828B1A38923F0030343F02C
:1026C4000103A381A0890543A581CDE7C5190008AD
:1026D400034610B5C9B202449342184601D1002002
:1026E40003E0047801338C42F6D110BD0148FFF7B2
:1026F40039BA00BF180100200148FFF734BA00BFFF
:102704001801002038B50546002940D051F8043C92
:102714000C1F002BB8BFE418FFF7E8FF1C4A13682E
:1027240033B9636014602846BDE83840FFF7E4BF5E
:10273400A34208D9206821188B4201BF19685B683D
:1027440009182160EDE71A465B680BB1A342FAD978
:1027540011685018A0420BD12068014450188342DC
:102764001160E0D118685B68014411605360DAE7D6
:1027740002D90C232B60D6E7206821188B4201BFB5
:1027840019685B680918216063605460CBE738BD41
:102794001C01002038B50446084611460022054DA8
:1027A4002A601A4600F04AF8431C02D12B6803B190
:1027B400236038BD2401002038B50023064D0446AB
:1027C400084611462B6000F021F8431C02D12B6807
:1027D40003B1236038BD00BF2401002038B50023B5
:1027E400054D044608462B6000F018F8431C02D13E
:1027F4002B6803B1236038BD240100205822024B0A
:102804004FF0FF301A607047240100205822024B19
:102814004FF0FF301A607047240100205822024B09
:1028240000201A60704700BF240100205822024B88
:102834004FF0FF301A607047240100205822024BE9
:102844004FF0FF301A60704724010020044A054904
:102854001368002B08BF0B461844106018467047D5
:102864002801002030010020F8B500BFF8BC08BCE6
:102874009E467047F8B500BFF8BC08BC9E4670473A
:10288400317320746573745F636E743D25640D0A3F
:102894000000000002030405060708090A0B0C0DDA
:1028A4000E0F1010000000000000000000000000E7
:1028B40001020304060708090000000001020304E2
:1028C40014000020000000000000000000000000D0
:1028D40000000000000000000000000000000000F4
:1028E40000000000000000000000000000000000E4
:1028F40000000000000000000000000000000000D4
:1029040000000000000000000000000000000000C3
:1029140000000000000000000000000000000000B3
:1029240000000000232D302B2000686C4C006566ED
:10293400674546470030313233343536373839410C
:102944004243444546003031323334353637383922
:08295400616263646566000026
:04295C000902000864
:04296000E501000885
:102964000100020001000000100000000024F40037
:102974001400002000000000E828000808290008CE
:10298400C82800080000000000000000000000004B
:102994000000000000000000000000000000000033
:1029A4000000000000000000000000000000000023
:1029B4000000000000000000000000000000000013
:1029C4000000000000000000000000000000000003
:0429D40000000000FF
:04000005080018A92E
:00000001FF
